{"abi":[{"type":"function","name":"executeBatch","inputs":[{"name":"calls","type":"tuple[]","internalType":"struct BatchExec.Call[]","components":[{"name":"to","type":"address","internalType":"address"},{"name":"value","type":"uint256","internalType":"uint256"},{"name":"data","type":"bytes","internalType":"bytes"}]}],"outputs":[],"stateMutability":"payable"},{"type":"error","name":"CallFailed","inputs":[{"name":"index","type":"uint256","internalType":"uint256"},{"name":"returndata","type":"bytes","internalType":"bytes"}]},{"type":"error","name":"OnlySelf","inputs":[]}],"bytecode":{"object":"0x6080604052348015600e575f80fd5b506103208061001c5f395ff3fe60806040526004361061001d575f3560e01c806334fcd5be14610021575b5f80fd5b61003461002f366004610185565b610036565b005b3330146100565760405163029a949d60e31b815260040160405180910390fd5b805f5b8181101561017f575f80858584818110610075576100756101f6565b9050602002810190610087919061020a565b610095906020810190610228565b6001600160a01b03168686858181106100b0576100b06101f6565b90506020028101906100c2919061020a565b602001358787868181106100d8576100d86101f6565b90506020028101906100ea919061020a565b6100f8906040810190610255565b60405161010692919061029f565b5f6040518083038185875af1925050503d805f8114610140576040519150601f19603f3d011682016040523d82523d5f602084013e610145565b606091505b509150915081610175578281604051635c0dee5d60e01b815260040161016c9291906102ae565b60405180910390fd5b5050600101610059565b50505050565b5f8060208385031215610196575f80fd5b823567ffffffffffffffff8111156101ac575f80fd5b8301601f810185136101bc575f80fd5b803567ffffffffffffffff8111156101d2575f80fd5b8560208260051b84010111156101e6575f80fd5b6020919091019590945092505050565b634e487b7160e01b5f52603260045260245ffd5b5f8235605e1983360301811261021e575f80fd5b9190910192915050565b5f60208284031215610238575f80fd5b81356001600160a01b038116811461024e575f80fd5b9392505050565b5f808335601e1984360301811261026a575f80fd5b83018035915067ffffffffffffffff821115610284575f80fd5b602001915036819003821315610298575f80fd5b9250929050565b818382375f9101908152919050565b828152604060208201525f82518060408401528060208501606085015e5f606082850101526060601f19601f830116840101915050939250505056fea2646970667358221220735624ece2c8fd322c6b3be0eb39017ebdfe7d624751d7203c774a2ee59f6b8f64736f6c634300081a0033","linkReferences":{}},"methodIdentifiers":{"executeBatch((address,uint256,bytes)[])":"34fcd5be"},"id":0}